{
  "contractName": "Arts",
  "abi": [
    {
      "inputs": [],
      "stateMutability": "nonpayable",
      "type": "constructor"
    },
    {
      "inputs": [
        {
          "internalType": "uint256",
          "name": "",
          "type": "uint256"
        }
      ],
      "name": "arts",
      "outputs": [
        {
          "internalType": "string",
          "name": "id",
          "type": "string"
        },
        {
          "internalType": "string",
          "name": "titre",
          "type": "string"
        },
        {
          "internalType": "string",
          "name": "description",
          "type": "string"
        },
        {
          "internalType": "string",
          "name": "date",
          "type": "string"
        },
        {
          "internalType": "string",
          "name": "image",
          "type": "string"
        },
        {
          "internalType": "uint256",
          "name": "price",
          "type": "uint256"
        },
        {
          "internalType": "address",
          "name": "owner",
          "type": "address"
        }
      ],
      "stateMutability": "view",
      "type": "function",
      "constant": true
    },
    {
      "inputs": [],
      "name": "owner",
      "outputs": [
        {
          "internalType": "address",
          "name": "",
          "type": "address"
        }
      ],
      "stateMutability": "view",
      "type": "function",
      "constant": true
    },
    {
      "inputs": [
        {
          "internalType": "string",
          "name": "id",
          "type": "string"
        },
        {
          "internalType": "string",
          "name": "titre",
          "type": "string"
        },
        {
          "internalType": "string",
          "name": "description",
          "type": "string"
        },
        {
          "internalType": "string",
          "name": "date",
          "type": "string"
        },
        {
          "internalType": "string",
          "name": "image",
          "type": "string"
        },
        {
          "internalType": "uint256",
          "name": "price",
          "type": "uint256"
        },
        {
          "internalType": "address",
          "name": "utilisateur",
          "type": "address"
        }
      ],
      "name": "mintArt",
      "outputs": [],
      "stateMutability": "nonpayable",
      "type": "function"
    },
    {
      "inputs": [
        {
          "internalType": "string",
          "name": "id",
          "type": "string"
        }
      ],
      "name": "buyArt",
      "outputs": [],
      "stateMutability": "payable",
      "type": "function",
      "payable": true
    }
  ],
  "bytecode": "0x6080604052336000806101000a81548173ffffffffffffffffffffffffffffffffffffffff021916908373ffffffffffffffffffffffffffffffffffffffff160217905550600060015534801561005557600080fd5b50610fd0806100656000396000f3fe60806040526004361061003e5760003560e01c80621b3c0c146100435780638da5cb5b1461006c578063b94c6ad114610097578063e57a104a146100b3575b600080fd5b34801561004f57600080fd5b5061006a60048036038101906100659190610a9d565b6100f6565b005b34801561007857600080fd5b506100816102b1565b60405161008e9190610bda565b60405180910390f35b6100b160048036038101906100ac9190610bf5565b6102d5565b005b3480156100bf57600080fd5b506100da60048036038101906100d59190610c3e565b61049f565b6040516100ed9796959493929190610d02565b60405180910390f35b6100fe6107b9565b878160000181905250868160200181905250858160400181905250848160600181905250838160800181905250828160a001818152505067016345785d8a00008160a0018181525050818160c0019073ffffffffffffffffffffffffffffffffffffffff16908173ffffffffffffffffffffffffffffffffffffffff1681525050600281908060018154018082558091505060019003906000526020600020906007020160009091909190915060008201518160000190805190602001906101c792919061080c565b5060208201518160010190805190602001906101e492919061080c565b50604082015181600201908051906020019061020192919061080c565b50606082015181600301908051906020019061021e92919061080c565b50608082015181600401908051906020019061023b92919061080c565b5060a0820151816005015560c08201518160060160006101000a81548173ffffffffffffffffffffffffffffffffffffffff021916908373ffffffffffffffffffffffffffffffffffffffff1602179055505050600160008154809291906102a290610dc3565b91905055505050505050505050565b60008054906101000a900473ffffffffffffffffffffffffffffffffffffffff1681565b60005b60028054905081101561049b57816040516020016102f69190610e48565b60405160208183030381529060405280519060200120600282815481106103205761031f610e5f565b5b90600052602060002090600702016000016040516020016103419190610f83565b604051602081830303815290604052805190602001201415610488576002818154811061037157610370610e5f565b5b90600052602060002090600702016005015434101561038f57600080fd5b600281815481106103a3576103a2610e5f565b5b906000526020600020906007020160060160009054906101000a900473ffffffffffffffffffffffffffffffffffffffff1673ffffffffffffffffffffffffffffffffffffffff166108fc67016345785d8a00009081150290604051600060405180830381858888f19350505050158015610422573d6000803e3d6000fd5b50336002828154811061043857610437610e5f565b5b906000526020600020906007020160060160006101000a81548173ffffffffffffffffffffffffffffffffffffffff021916908373ffffffffffffffffffffffffffffffffffffffff1602179055505b808061049390610dc3565b9150506102d8565b5050565b600281815481106104af57600080fd5b90600052602060002090600702016000915090508060000180546104d290610ebd565b80601f01602080910402602001604051908101604052809291908181526020018280546104fe90610ebd565b801561054b5780601f106105205761010080835404028352916020019161054b565b820191906000526020600020905b81548152906001019060200180831161052e57829003601f168201915b50505050509080600101805461056090610ebd565b80601f016020809104026020016040519081016040528092919081815260200182805461058c90610ebd565b80156105d95780601f106105ae576101008083540402835291602001916105d9565b820191906000526020600020905b8154815290600101906020018083116105bc57829003601f168201915b5050505050908060020180546105ee90610ebd565b80601f016020809104026020016040519081016040528092919081815260200182805461061a90610ebd565b80156106675780601f1061063c57610100808354040283529160200191610667565b820191906000526020600020905b81548152906001019060200180831161064a57829003601f168201915b50505050509080600301805461067c90610ebd565b80601f01602080910402602001604051908101604052809291908181526020018280546106a890610ebd565b80156106f55780601f106106ca576101008083540402835291602001916106f5565b820191906000526020600020905b8154815290600101906020018083116106d857829003601f168201915b50505050509080600401805461070a90610ebd565b80601f016020809104026020016040519081016040528092919081815260200182805461073690610ebd565b80156107835780601f1061075857610100808354040283529160200191610783565b820191906000526020600020905b81548152906001019060200180831161076657829003601f168201915b5050505050908060050154908060060160009054906101000a900473ffffffffffffffffffffffffffffffffffffffff16905087565b6040518060e00160405280606081526020016060815260200160608152602001606081526020016060815260200160008152602001600073ffffffffffffffffffffffffffffffffffffffff1681525090565b82805461081890610ebd565b90600052602060002090601f01602090048101928261083a5760008555610881565b82601f1061085357805160ff1916838001178555610881565b82800160010185558215610881579182015b82811115610880578251825591602001919060010190610865565b5b50905061088e9190610892565b5090565b5b808211156108ab576000816000905550600101610893565b5090565b6000604051905090565b600080fd5b600080fd5b600080fd5b600080fd5b6000601f19601f8301169050919050565b7f4e487b7100000000000000000000000000000000000000000000000000000000600052604160045260246000fd5b610916826108cd565b810181811067ffffffffffffffff82111715610935576109346108de565b5b80604052505050565b60006109486108af565b9050610954828261090d565b919050565b600067ffffffffffffffff821115610974576109736108de565b5b61097d826108cd565b9050602081019050919050565b82818337600083830152505050565b60006109ac6109a784610959565b61093e565b9050828152602081018484840111156109c8576109c76108c8565b5b6109d384828561098a565b509392505050565b600082601f8301126109f0576109ef6108c3565b5b8135610a00848260208601610999565b91505092915050565b6000819050919050565b610a1c81610a09565b8114610a2757600080fd5b50565b600081359050610a3981610a13565b92915050565b600073ffffffffffffffffffffffffffffffffffffffff82169050919050565b6000610a6a82610a3f565b9050919050565b610a7a81610a5f565b8114610a8557600080fd5b50565b600081359050610a9781610a71565b92915050565b600080600080600080600060e0888a031215610abc57610abb6108b9565b5b600088013567ffffffffffffffff811115610ada57610ad96108be565b5b610ae68a828b016109db565b975050602088013567ffffffffffffffff811115610b0757610b066108be565b5b610b138a828b016109db565b965050604088013567ffffffffffffffff811115610b3457610b336108be565b5b610b408a828b016109db565b955050606088013567ffffffffffffffff811115610b6157610b606108be565b5b610b6d8a828b016109db565b945050608088013567ffffffffffffffff811115610b8e57610b8d6108be565b5b610b9a8a828b016109db565b93505060a0610bab8a828b01610a2a565b92505060c0610bbc8a828b01610a88565b91505092959891949750929550565b610bd481610a5f565b82525050565b6000602082019050610bef6000830184610bcb565b92915050565b600060208284031215610c0b57610c0a6108b9565b5b600082013567ffffffffffffffff811115610c2957610c286108be565b5b610c35848285016109db565b91505092915050565b600060208284031215610c5457610c536108b9565b5b6000610c6284828501610a2a565b91505092915050565b600081519050919050565b600082825260208201905092915050565b60005b83811015610ca5578082015181840152602081019050610c8a565b83811115610cb4576000848401525b50505050565b6000610cc582610c6b565b610ccf8185610c76565b9350610cdf818560208601610c87565b610ce8816108cd565b840191505092915050565b610cfc81610a09565b82525050565b600060e0820190508181036000830152610d1c818a610cba565b90508181036020830152610d308189610cba565b90508181036040830152610d448188610cba565b90508181036060830152610d588187610cba565b90508181036080830152610d6c8186610cba565b9050610d7b60a0830185610cf3565b610d8860c0830184610bcb565b98975050505050505050565b7f4e487b7100000000000000000000000000000000000000000000000000000000600052601160045260246000fd5b6000610dce82610a09565b91507fffffffffffffffffffffffffffffffffffffffffffffffffffffffffffffffff821415610e0157610e00610d94565b5b600182019050919050565b600081905092915050565b6000610e2282610c6b565b610e2c8185610e0c565b9350610e3c818560208601610c87565b80840191505092915050565b6000610e548284610e17565b915081905092915050565b7f4e487b7100000000000000000000000000000000000000000000000000000000600052603260045260246000fd5b7f4e487b7100000000000000000000000000000000000000000000000000000000600052602260045260246000fd5b60006002820490506001821680610ed557607f821691505b60208210811415610ee957610ee8610e8e565b5b50919050565b60008190508160005260206000209050919050565b60008154610f1181610ebd565b610f1b8186610e0c565b94506001821660008114610f365760018114610f4757610f7a565b60ff19831686528186019350610f7a565b610f5085610eef565b60005b83811015610f7257815481890152600182019150602081019050610f53565b838801955050505b50505092915050565b6000610f8f8284610f04565b91508190509291505056fea2646970667358221220e60651a42c9d0d7a2f3fe261b6fde7d9ca97a0a7ded3cd22159524238792c75564736f6c634300080b0033",
  "immutableReferences": {},
  "source": "// SPDX-License-Identifier: GPL-3.0\npragma solidity >=0.4.22 <0.9.0;\n\n\n\ncontract Arts {\n  address public owner = msg.sender;\n\n  struct Art {\n     string id;\n    string titre;\n    string description;\n    string date;\n    string image;\n    uint256 price;\n    address owner;\n  }\n\n\nuint256  TOTAL_ARTS=0;\nArt[] public arts;\n\n\n\n\n\n  constructor() { }\n  \n\n\n\n\n  function mintArt(string memory id,string memory titre ,string memory description,string memory date,string memory image,uint256 price,address utilisateur ) public  \n  {\nArt memory art; \nart.id=id;\nart.titre=titre;\nart.description=description;\nart.date=date;\nart.image=image;\nart.price=price;\nart.price=1e17;\nart.owner=utilisateur;\narts.push(art);\nTOTAL_ARTS++;\n  }\n\n\n\n  function buyArt(string memory id)  external payable  {\n    // require(_index < TOTAL_ARTS && _index >= 0);\n \n    \n     for(uint i=0; i<arts.length; i++){\n       if (keccak256(abi.encodePacked(arts[i].id))==keccak256(abi.encodePacked(id))){\n         require(msg.value >= arts[i].price);\n        payable(arts[i].owner).transfer(1e17);\n        \n         arts[i].owner = msg.sender;\n          \n     \n       }\n      }\n  }\n  \n}",
  "sourcePath": "C:\\Users\\storm\\Bureau\\artibackhass\\contracts\\Arts.sol",
  "compiler": {
    "name": "solc",
    "version": "0.8.11+commit.d7f03943.Emscripten.clang"
  },
  "schemaVersion": "3.4.7",
  "updatedAt": "2022-04-10T12:15:07.827Z",
  "networkType": "ethereum",
  "devdoc": {
    "kind": "dev",
    "methods": {},
    "version": 1
  },
  "userdoc": {
    "kind": "user",
    "methods": {},
    "version": 1
  }
}